:0400000067EF1AF09C
:1008000000010000000A00000064000000E803008E
:100810000010270000A086010040420F008096983B
:100820000000E1F50500CA9A3B00803FCDCC3DD7E2
:10083000233C12833AB7D138C62737388635C0D61D
:1008400033CC2B32708930E7DB2EE53C1E42A20D03
:1008500000803F00204100C842007A44401C4650BE
:10086000C34724744997184BBCBE4C6B6E4E03159E
:100870005079AD60F3497174656D703A2000255070
:10088000574D3A2000496E6963696F00252E326426
:1008900000252E32660020430000440E0001636FE5
:1008A000000E0001646FB7EF08F0250E0001761905
:1008B000D8B40AD040C0D9FF41C0DAFF76C0DFFF0C
:1008C000404A412AB7EF08F0000E0001666F000EA3
:1008D000656F42C0F6FF43C0F7FF0800F5502E0ACF
:1008E000D8A432D00001668D424A432A000E00018E
:1008F000726F000E716F1DD071C00FF072C010F0DA
:10090000000E126E0A0E116ED6EC1AF042C0F6FFFF
:1009100043C0F7FF0800F5500F26000E1022D00E3E
:100920000F240001716FFF0E10200001726F424A08
:10093000432A42C0F6FF43C0F7FF0800F5501DEC04
:100940001BF0D8A00CD0D8D7000E0001726F000E9B
:10095000716F0001668903D00001668518D042C01E
:10096000F6FF43C0F7FF424A432A0800F5CF76F06E
:1009700000017651000AD8B4C5EF08F0640AD8B473
:1009800006D0020AD8B4E8D70F0AD8A4F0D3070ECD
:1009900000016615D8B406D3000166A905D0000E83
:1009A0000001726F060E716F63C0D9FF64C0DAFF79
:1009B000DECF73F0DECF74F0DDCF75F0030E0001F3
:1009C0006327000E6423000175AF11D073C001F0DE
:1009D00074C002F075C003F0E9EC1AF001C073F0C6
:1009E00002C074F003C075F0030E00016513000E21
:1009F0000001686F000E676F0001735100017411F0
:100A000000017511D8B48BD0820E476EFF0E486E70
:100A100073C049F074C04AF075C04BF076C04CF01A
:100A2000100E05D0D8904C324B324A324932E82E63
:100A3000F9D7495047240001676F000E4820000194
:100A4000686F00016707D8A0680767C00FF068C02B
:100A500010F0000E126E030E116ED6EC1AF00FC0DD
:100A600067F010C068F067C007F068C008F0000EBB
:100A70000A6E0A0E096EF5EC17F007C067F008C0A1
:100A800068F0000168AF04D000016707D8A06807CC
:100A9000000167510008EFEC0AF024C069F025C09E
:100AA0006AF026C06BF069C015F06AC016F06BC022
:100AB00017F073C018F074C019F075C01AF039EC53
:100AC00015F015C069F016C06AF017C06BF069C068
:100AD00015F06AC016F06BC017F0000E186E800E8D
:100AE000196E3F0E1A6EADEC17F0D8B005D00001AC
:100AF0006707D8A0680713D069C015F06AC016F060
:100B00006BC017F0000E186E200E196E410E1A6E93
:100B1000ADEC17F0D8A003D00001674B682B0001A3
:100B200072BF08D0000172511DE10D0E0001715D10
:100B3000D8B018D073C02EF074C02FF075C030F04C
:100B40000001715119EC0EF024C031F025C032F0D3
:100B500026C033F05BEC10F02EC073F02FC074F0A1
:100B600030C075F0000168BF08D00001685126E16F
:100B70000A0E0001675DD8B021D000017351000159
:100B8000741100017511D8B45BD073C02BF074C020
:100B90002CF075C02DF0BFEC14F02B502C102D1044
:100BA0002E10D8A44DD0000168BF4AD00001685172
:100BB00005E1020E0001675DD8A042D069C015F0C2
:100BC0006AC016F06BC017F0700E186E890E196EA1
:100BD000400E1A6EADEC17F0D8B003D00001F70E3E
:100BE00002D00001F80E6727FF0E6823000167514D
:100BF000EFEC0AF024C069F025C06AF026C06BF063
:100C000073C001F074C002F075C003F069C004F055
:100C10006AC005F06BC006F07DEC12F001C06DF00B
:100C200002C06EF003C06FF004C070F0000E00014F
:100C3000736F000E0001746F000E0001756F33D0EA
:100C400073C02BF074C02CF075C02DF0BFEC14F005
:100C50002BC06DF02CC06EF02DC06FF02EC070F068
:100C600073C03AF074C03BF075C03CF06DC009F041
:100C70006EC00AF06FC00BF070C00CF056EC19F0AB
:100C800009C03DF00AC03EF00BC03FF0D9EC19F0AE
:100C90003AC073F03BC074F03CC075F0000E000128
:100CA000686F000E676F010E0001766F0A0E00017B
:100CB0007619D8B41ED000017651040D010EF3242C
:100CC000F66E080EF420F76E0900F55000016D5D18
:100CD0000900F55000016E590900F55000016F59E7
:100CE0000900F55000017059D8A003D00001762BFF
:100CF000DDD7030E00016515476E000E0001661575
:100D0000486E47504810D8B453D040C0D9FF41C0B6
:100D1000DAFF2D0E4BD0404A412A4AD06DC001F077
:100D20006EC002F06FC003F070C004F00001765195
:100D3000040D010EF324F66E080EF420F76E090080
:100D4000F5CF05F00900F5CF06F00900F5CF07F063
:100D50000A00F5CF08F037EC18F001C069F002C0C6
:100D60006AF003C06BF004C06CF069C00EF06AC09A
:100D70000FF06BC010F06CC011F00A0E126E000E76
:100D8000136E000E146E000E156E23EC19F00EC0DB
:100D900069F00FC06AF010C06BF011C06CF0000178
:100DA0006951300F40C0D9FF41C0DAFFDF6EB3D7C1
:100DB0000001760700017629D8B40DD0AFD740C026
:100DC000D9FF41C0DAFF300EDF6E404A412A0001F0
:100DD0006707D8A06807000168BF07D00001685105
:100DE000EEE100016705D8B0EAD7000172BF0CD070
:100DF0000001725105E1090E0001715DD8A004D017
:100E0000080E0001766F02D071C076F000017651B5
:100E10000001715F000E000176BFFF0E0001725BE2
:100E2000000176510001D8B408D040C0D9FF41C0BC
:100E3000DAFF2E0EDF6E404A412A00017651EFECB8
:100E40000AF024C060F025C061F026C062F073C0D3
:100E500018F074C019F075C01AF060C015F061C0C8
:100E600016F062C017F039EC15F015C02BF016C063
:100E70002CF017C02DF0BFEC14F02BC06DF02CC07F
:100E80006EF02DC06FF02EC070F072D06DC001F00A
:100E90006EC002F06FC003F070C004F00001765124
:100EA000040D010EF324F66E080EF420F76E09000F
:100EB000F5CF05F00900F5CF06F00900F5CF07F0F2
:100EC0000A00F5CF08F037EC18F001C069F002C055
:100ED0006AF003C06BF004C06CF069C00EF06AC029
:100EE0000FF06BC010F06CC011F00A0E126E000E05
:100EF000136E000E146E000E156E23EC19F00EC06A
:100F000069F00FC06AF010C06BF011C06CF0000106
:100F10006951300F40C0D9FF41C0DAFFDF6E404A4F
:100F2000412A6DC00EF06EC00FF06FC010F070C09F
:100F300011F000017651040D010EF324F66E080E37
:100F4000F420F76E0900F5CF12F00900F5CF13F089
:100F50000900F5CF14F00A00F5CF15F023EC19F0D5
:100F60000EC06DF00FC06EF010C06FF011C070F0C9
:100F70000001760700017629D8B40DD087D740C08C
:100F8000D9FF41C0DAFF300EDF6E404A412A00012E
:100F90007107D8A072070001715100017211D8B415
:100FA000E6D0EDD763C0D9FF64C0DAFFDECF6DF0C5
:100FB000DDCF6EF00001000E6EBFFF0E6F6F706F21
:100FC000020E00016327000E6423000170AF0CD0F5
:100FD000030E000165130001701F6F1F6E1F6D6D02
:100FE000000E6E236F2370230001715100017211F6
:100FF000D8A40DD000016D5100016E1100016F11D8
:1010000000017011D8A403D00001714B722B010EA6
:101010000001766F0A0E00017619D8B41ED00001C7
:101020007651040D010EF324F66E080EF420F76ECF
:101030000900F55000016D5D0900F55000016E5981
:101040000900F55000016F590900F5500001705971
:10105000D8A003D00001762BDDD7800E000176BF2B
:101060007F0E476E000171510001765D00017251E3
:10107000800A4758D8B003D071C076F016D000016E
:101080007251800A476E000176510001715D800E39
:10109000000176BF7F0E4758D8B007D000017651C7
:1010A0000001716F726B71BF7207030E000165154D
:1010B000476E000E00016615486E47504810D8B4C0
:1010C0004BD040C0D9FF41C0DAFF2D0EDF6E42D0B9
:1010D00071C047F072C048F0D89047364836D89073
:1010E00047364836010E4724F66E080E4820F76E44
:1010F0000900F5CF05F00900F5CF06F00900F5CF9E
:1011000007F00A00F5CF08F06DC001F06EC002F0E4
:101110006FC003F070C004F037EC18F001C00EF09F
:1011200002C00FF003C010F004C011F00A0E126EDE
:10113000000E136E000E146E000E156E23EC19F0E7
:101140000E50300F0001766F40C0D9FF41C0DAFF6A
:1011500076C0DFFF404A412A00017107D8A072071C
:1011600000017129B5E100017229D8A4B1D742C0AC
:10117000F6FF43C0F7FF424A432A0800F5CF76F056
:1011800000017651D8A455EF04F040C0D9FF41C00A
:10119000DAFF000EDF6E1200000E496E060E4A6E78
:1011A000000E4B6E000E4C6E000E4D6E000E4E6E1D
:1011B000C80E4F6E420E506E000E526E280E516ECB
:1011C0003FEC14F0780E496E060E4A6E000E4B6E20
:1011D000000E4C6E000E4D6E000E4E6EC80E4F6E21
:1011E000420E506E000E526E280E516E3FEC14F0FF
:1011F000000E0001606F010E0001616F000E000122
:10120000626F060E0001636F000E0001646F100E26
:101210000001656FC20E0001666F000E0001676F6E
:10122000800E0001686FC00E0001696FE10E0001C1
:101230006A6F6A0E00016B6F410E00016C6F000E49
:1012400000016D6F100E00016E6F420E00016F6F96
:10125000E2EC11F0780E0001606F010E0001616F89
:10126000000E0001626F060E0001636F9A0E00010E
:10127000646F790E0001656F410E0001666FE10E2B
:101280000001676F050E0001686F420E0001696F73
:10129000CD0E00016A6F720E00016B6F420E0001ED
:1012A0006C6F330E00016D6FAF0E00016E6F420E5A
:1012B00000016F6FE2EC11F0000E0001606F020E92
:1012C0000001616F000E0001626F060E0001636F86
:1012D000000E0001646F800E0001656F420E000178
:1012E000666F850E0001676F9F0E0001686F420EEA
:1012F0000001696F000E00016A6FD00E00016B6F74
:10130000420E00016C6F000E00016D6F080E0001AF
:101310006E6F430E00016F6FE2EC11F0780E00016A
:10132000606F020E0001616F780E0001626F060EA1
:101330000001636F000E0001646F100E0001656F05
:10134000C20E0001666F000E0001676F800E000183
:10135000686FC00E0001696FB80E00016A6F8C0ED5
:1013600000016B6F410E00016C6F000E00016D6F8C
:10137000100E00016E6F420E00016F6FE2EC11F073
:10138000000E0001606F030E0001616F780E000116
:10139000626F060E0001636F000E0001646F600E45
:1013A0000001656F410E0001666F000E0001676F5E
:1013B000380E0001686F420E0001696F000E0001D7
:1013C0006A6F580E00016B6F420E00016C6F000EC9
:1013D00000016D6FAC0E00016E6F420E00016F6F69
:1013E000E2EC11F0780E0001606F030E0001616FF6
:1013F000780E0001626F060E0001636F000E00019F
:10140000646F800E0001656F420E0001666FA40ECE
:101410000001676FAA0E0001686F420E0001696F3C
:10142000000E00016A6FD00E00016B6F420E0001CA
:101430006C6F000E00016D6F080E00016E6F430EA1
:1014400000016F6FE2EC11F0000E496E100E4A6E53
:10145000C20E4B6E000E4C6E800E4D6EC00E4E6E68
:10146000E10E4F6E6A0E506E410E516E000E526EBE
:10147000100E536E420E546E5BC055F05CC056F0B9
:101480005DC057F03CEC0FF049C0EAF04AC0EBF009
:101490004BC0ECF09A0E496E790E4A6E410E4B6EBF
:1014A000E10E4C6E050E4D6E420E4E6ECD0E4F6E21
:1014B000720E506E420E516E330E526EAF0E536E60
:1014C000420E546E5BC055F05CC056F05DC057F0E4
:1014D0003CEC0FF049C0EDF04AC0EEF04BC0EFF02D
:1014E000000E496E800E4A6E420E4B6E850E4C6E9B
:1014F0009F0E4D6E420E4E6E000E4F6ED00E506E11
:10150000420E516E000E526E080E536E430E546E14
:101510005BC055F05CC056F05DC057F03CEC0FF07E
:1015200049C0F0F04AC0F1F04BC0F2F0000E1E6E60
:10153000040E1F6E780E206E020E216EEAC022F09D
:10154000EBC023F0ECC024F0B3EC15F0780E1E6E67
:10155000040E1F6E000E206E030E216EEDC022F0F1
:10156000EEC023F0EFC024F0B3EC15F0000E1E6EB9
:10157000050E1F6E780E206E030E216EF0C022F055
:10158000F1C023F0F2C024F0B3EC15F0780E1E6E1B
:10159000050E1F6E000E206E040E216E780E226E58
:1015A000040E236E000E246E050E256EE7EC0CF083
:1015B000780E496E060E4A6E780E4B6E050E4C6E16
:1015C00031EC11F049C0F3F04AC0F4F04BC0F5F033
:1015D000F3C05BF0F4C05CF0F5C05DF012002A6E61
:1015E0002AAEFBD02A6C2A50800A120FD8A091D0C4
:1015F000000E126E030E116E000E0A6E0A0E096EB8
:10160000000E046E640E036E2A50016E026A01BE63
:101610000206EBEC18F001C007F002C008F0F5EC90
:1016200017F0090E07240F6E000E0820106ED6EC7E
:101630001AF0290E0F24F66E080E1020F76E09001E
:10164000F5CF18F00900F5CF19F00A00F5CF1AF020
:10165000000E0A6E640E096E2A50076E086A07BEF5
:101660000806F5EC17F0120E07240F6E000E082086
:10167000106E000E126E030E116ED6EC1AF0290ECB
:101680000F24F66E080E1020F76E0900F5CF15F046
:101690000900F5CF16F00A00F5CF17F039EC15F078
:1016A00015C027F016C028F017C029F027C015F084
:1016B00028C016F029C017F0000E126E030E116E2E
:1016C000000E046E0A0E036E2A50016E026A01BEFD
:1016D0000206EBEC18F001C00FF002C010F0D6ECDF
:1016E0001AF0290E0F24F66E080E1020F76E09006E
:1016F000F5CF18F00900F5CF19F00A00F5CF1AF070
:1017000039EC15F015C024F016C025F017C026F0EE
:1017100012002A50800A750FD8A04DD0000E0A6E14
:101720000A0E096E2A50076E086A07BE0806F5EC15
:1017300017F0090E07240F6E000E0820106E000E21
:10174000126E030E116ED6EC1AF0290E0F24F66EEF
:10175000080E1020F76E0900F5CF15F00900F5CF3F
:1017600016F00A00F5CF17F0000E126E030E116E80
:10177000000E046E0A0E036E2A50016E026A01BE4C
:101780000206EBEC18F001C00FF002C010F0D6EC2E
:101790001AF0290E0F24F66E080E1020F76E0900BD
:1017A000F5CF18F00900F5CF19F00A00F5CF1AF0BF
:1017B00039EC15F0A7D72A50030D290EF324F66E45
:1017C000080EF420F76E0900F5CF24F00900F5CFDC
:1017D00025F00A00F5CF26F012002A50800A120FD9
:1017E000D8A091D0000E126E030E116E000E0A6E7C
:1017F0000A0E096E000E046E640E036E2A50016E0E
:10180000026A01BE0206EBEC18F001C007F002C04C
:1018100008F0F5EC17F0090E07240F6E000E0820F3
:10182000106ED6EC1AF0500E0F24F66E080E102033
:10183000F76E0900F5CF18F00900F5CF19F00A008E
:10184000F5CF1AF0000E0A6E640E096E2A50076E6C
:10185000086A07BE0806F5EC17F0120E07240F6E93
:10186000000E0820106E000E126E030E116ED6ECE4
:101870001AF0500E0F24F66E080E1020F76E0900B5
:10188000F5CF15F00900F5CF16F00A00F5CF17F0E7
:1018900039EC15F015C027F016C028F017C029F054
:1018A00027C015F028C016F029C017F0000E126EE0
:1018B000030E116E000E046E0A0E036E2A50016EA6
:1018C000026A01BE0206EBEC18F001C00FF002C084
:1018D00010F0D6EC1AF0500E0F24F66E080E102001
:1018E000F76E0900F5CF18F00900F5CF19F00A00DE
:1018F000F5CF1AF039EC15F015C024F016C025F01C
:1019000017C026F012002A50800A750FD8A04DD0BB
:10191000000E0A6E0A0E096E2A50076E086A07BE8C
:101920000806F5EC17F0090E07240F6E000E0820CC
:10193000106E000E126E030E116ED6EC1AF0500EE1
:101940000F24F66E080E1020F76E0900F5CF15F083
:101950000900F5CF16F00A00F5CF17F0000E126E51
:10196000030E116E000E046E0A0E036E2A50016EF5
:10197000026A01BE0206EBEC18F001C00FF002C0D3
:1019800010F0D6EC1AF0500E0F24F66E080E102050
:10199000F76E0900F5CF18F00900F5CF19F00A002D
:1019A000F5CF1AF039EC15F0A7D72A50030D500ED9
:1019B000F324F66E080EF420F76E0900F5CF24F03C
:1019C0000900F5CF25F00A00F5CF26F01200000E31
:1019D000276E000E266E27BE08D0275005E1280E80
:1019E000265CD8B0120001D0120026C00FF027C02C
:1019F00010F0000E126E030E116ED6EC1AF00F509E
:101A00002224D96E10502320DA6EDECF15F0DECFFF
:101A100016F0DDCF17F026C00FF027C010F0000E33
:101A2000126E030E116ED6EC1AF00F502024D96EF0
:101A300010502120DA6EDECF18F0DECF19F0DDCFA6
:101A40001AF0ADEC17F0D8B04BD026C00FF027C07D
:101A500010F0000E126E030E116ED6EC1AF00F503D
:101A60002424D96E10502520DA6EDECF15F0DECF9B
:101A700016F0DDCF17F026C00FF027C010F0000ED3
:101A8000126E030E116ED6EC1AF00F502024D96E90
:101A900010502120DA6EDECF18F0DECF19F0DDCF46
:101AA0001AF0ADEC17F0D8B01BD026C00FF027C04D
:101AB00010F0000E126E030E116ED6EC1AF00F50DD
:101AC0002024D96E10502120DA6E26C00FF027C0D6
:101AD00010F0000E126E030E116ED6EC1AF095D0B7
:101AE00026C00FF027C010F0000E126E030E116E0C
:101AF000D6EC1AF00F502024D96E10502120DA6E47
:101B0000DECF15F0DECF16F0DDCF17F026C00FF0D8
:101B100027C010F0000E126E030E116ED6EC1AF0F4
:101B20000F502224D96E10502320DA6EDECF18F029
:101B3000DECF19F0DDCF1AF0ADEC17F0D8B04BD0F6
:101B400026C00FF027C010F0000E126E030E116EAB
:101B5000D6EC1AF00F502424D96E10502520DA6EDE
:101B6000DECF15F0DECF16F0DDCF17F026C00FF078
:101B700027C010F0000E126E030E116ED6EC1AF094
:101B80000F502224D96E10502320DA6EDECF18F0C9
:101B9000DECF19F0DDCF1AF0ADEC17F0D8B01BD0C6
:101BA00026C00FF027C010F0000E126E030E116E4B
:101BB000D6EC1AF00F502224D96E10502320DA6E82
:101BC00026C00FF027C010F0000E126E030E116E2B
:101BD000D6EC1AF01AD026C00FF027C010F0000E75
:101BE000126E030E116ED6EC1AF00F502424D96E2B
:101BF00010502520DA6E26C00FF027C010F0000E1E
:101C0000126E030E116ED6EC1AF00F501E24E16E08
:101C100010501F20E26EDECFE6FFDECFE6FFDECF04
:101C2000E6FF264A272A27BEE0D6275001E1D7D66D
:101C300012002D6E6D0E2D649FD0000E126E030EDD
:101C4000116E000E0A6E0A0E096E000E046E640E0E
:101C5000036E2DC001F0026AEBEC18F001C007F032
:101C600002C008F0F5EC17F0090E07240F6E000E05
:101C70000820106ED6EC1AF0290E0F24F66E080E0E
:101C80001020F76E0900F5CF18F00900F5CF19F014
:101C90000A00F5CF1AF0000E0A6E640E096E2DC010
:101CA00007F0086AF5EC17F0120E07240F6E000E0D
:101CB0000820106E000E126E030E116ED6EC1AF094
:101CC000290E0F24F66E080E1020F76E0900F5CFCE
:101CD00015F00900F5CF16F00A00F5CF17F039EC32
:101CE00015F015C02AF016C02BF017C02CF0000E0E
:101CF000126E030E116E000E046E0A0E036E2DC0DE
:101D000001F0026AEBEC18F001C00FF002C010F015
:101D1000D6EC1AF0290E0F24F66E080E1020F76E7E
:101D20000900F5CF18F00900F5CF19F00A00F5CF3A
:101D30001AF02AC015F02BC016F02CC017F039ECA1
:101D400015F015C027F016C028F017C029F027C0DD
:101D500015F028C016F029C017F0000E186E000EFE
:101D6000196E3F0E1A6E39EC15F015C024F016C02E
:101D700025F017C026F012000A0E2D645DD0000E6B
:101D8000126E030E116E000E046E0A0E036E2DC04D
:101D900001F0026AEBEC18F001C00FF002C010F085
:101DA000D6EC1AF0290E0F24F66E080E1020F76EEE
:101DB0000900F5CF18F00900F5CF19F00A00F5CFAA
:101DC0001AF0000E0A6E0A0E096E2DC007F0086A9E
:101DD000F5EC17F0090E07240F6E000E0820106EA8
:101DE000000E126E030E116ED6EC1AF0290E0F249F
:101DF000F66E080E1020F76E0900F5CF15F00900F9
:101E0000F5CF16F00A00F5CF17F039EC15F015C034
:101E10002AF016C02BF017C02CF02AC015F02BC0EA
:101E200016F02CC017F0000E186E000E196E3F0E43
:101E30001A6E39EC15F099D72D50030D290EF324A5
:101E4000F66E080EF420F76E0900F5CF15F00900C4
:101E5000F5CF16F00A00F5CF17F0000E186E000E41
:101E6000196E3F0E1A6E39EC15F015C024F016C02D
:101E700025F017C026F01200000E586E000E596EA5
:101E8000000E5A6E49C015F04AC016F04BC017F04C
:101E900055C018F056C019F057C01AF0ADEC17F045
:101EA000D8A006D0000E586E000E596E000E5A6E65
:101EB00049C015F04AC016F04BC017F055C018F0D5
:101EC00056C019F057C01AF0ADEC17F0D8B050D08A
:101ED00055C015F056C016F057C017F04CC018F09A
:101EE0004DC019F04EC01AF0ADEC17F0D8B040D08C
:101EF00055C031F056C032F057C033F049C001F040
:101F00004AC002F04BC003F0E9EC1AF001C02EF019
:101F100002C02FF003C030F05BEC10F02EC03AF09E
:101F20002FC03BF030C03CF04CC031F04DC032F01F
:101F30004EC033F049C001F04AC002F04BC003F07C
:101F4000E9EC1AF001C02EF002C02FF003C030F00F
:101F50005BEC10F02EC03DF02FC03EF030C03FF0E3
:101F600026EC16F03AC058F03BC059F03CC05AF08D
:101F700055C015F056C016F057C017F04CC018F0F9
:101F80004DC019F04EC01AF0ADEC17F0D8A016D025
:101F90004FC015F050C016F051C017F055C018F0E2
:101FA00056C019F057C01AF0ADEC17F0D8A006D003
:101FB000000E586E800E596E3F0E5A6E4FC015F0CF
:101FC00050C016F051C017F055C018F056C019F0A7
:101FD00057C01AF0ADEC17F0D8B050D055C015F07E
:101FE00056C016F057C017F052C018F053C019F081
:101FF00054C01AF0ADEC17F0D8B040D052C031F058
:1020000053C032F054C033F055C001F056C002F056
:1020100057C003F0E9EC1AF001C02EF002C02FF017
:1020200003C030F05BEC10F02EC03AF02FC03BF054
:1020300030C03CF052C031F053C032F054C033F0E5
:102040004FC001F050C002F051C003F0E9EC1AF0AB
:1020500001C02EF002C02FF003C030F05BEC10F096
:102060002EC03DF02FC03EF030C03FF026EC16F001
:102070003AC058F03BC059F03CC05AF052C015F07D
:1020800053C016F054C017F055C018F056C019F0E0
:1020900057C01AF0ADEC17F0D8B006D0000E586E4D
:1020A000000E596E000E5A6E58C049F059C04AF0E1
:1020B0005AC04BF0120030C034F0356A366A2F3403
:1020C000343601E335803450396E33C034F0356A2C
:1020D000366A3234343601E335803450386E395044
:1020E000D8B40BD03850395CD8B00ED03950000875
:1020F0003824346E180E346407D031C02EF032C04C
:102100002FF033C030F012003850D8B40BD0395013
:10211000385CD8B00ED0385000083924346E180E10
:10212000346407D02EC02EF02FC02FF030C030F016
:102130001200060E376E30BE378E33BE378C2F8EB0
:10214000FF0E2E16FF0E2F16000E3016328EFF0ECB
:102150003116FF0E3216000E33163850395CD8B0E7
:102160001BD0D890313632363336380639503818CD
:10217000D8B40DD0370637C034F0070E3416D8B4B3
:1021800006D0EFD7D89030322F322E32392A38503D
:102190003918D8B41FD0F6D73950385CD8B01AD017
:1021A000D8902E362F363036390639503818D8B4F4
:1021B0000DD0370637C034F0070E3416D8B406D029
:1021C000EFD7D890333232323132382A385039187A
:1021D000D8A4F7D737AE0CD0FF0E2E1AFF0E2F1A49
:1021E000FF0E301A010E2E26000E2F22000E302276
:1021F00037AC0CD0FF0E311AFF0E321AFF0E331A15
:10220000010E3126000E3222000E3322000E376EF0
:102210002E5031262F5032223050332233AE0ED082
:10222000FF0E311AFF0E321AFF0E331A010E31263D
:10223000000E3222000E3322010E376E31C001F043
:1022400032C002F033C003F039C004F037C005F0EB
:102250000AEC17F001C02EF002C02FF003C030F0DE
:102260001200000E506E000E516E000E526E000EE7
:10227000536E000E546E000E556E000E4D6E000E25
:102280004E6E000E4F6E000E576E000E566E57BE0D
:1022900006D0575049E1280E565CD8B045D050C002
:1022A0002EF051C02FF052C030F056C00FF057C082
:1022B00010F0000E126E030E116ED6EC1AF00F50D5
:1022C0004B24D96E10504C20DA6EDECF18F0DECFE2
:1022D00019F0DDCF1AF056C00FF057C010F0000E05
:1022E000126E030E116ED6EC1AF00F504924D96EFF
:1022F00010504A20DA6EDECF15F0DECF16F0DDCFBB
:1023000017F039EC15F015C031F016C032F017C0D7
:1023100033F05BEC10F02EC050F02FC051F030C005
:1023200052F0564A572AB3D7000E576E000E566E1B
:1023300057BE06D057502BE1280E565CD8B027D098
:1023400053C02EF054C02FF055C030F056C00FF0DF
:1023500057C010F0000E126E030E116ED6EC1AF07C
:102360000F504B24D96E10504C20DA6EDECF31F076
:10237000DECF32F0DDCF33F05BEC10F02EC053F047
:102380002FC054F030C055F0564A572AD1D750C00C
:102390003AF051C03BF052C03CF053C03DF054C045
:1023A0003EF055C03FF026EC16F03AC04DF03BC071
:1023B0004EF03CC04FF04DC049F04EC04AF04FC007
:1023C0004BF01200000E0001E96F000EE86F0001F3
:1023D000E9BF08D00001E95131E1280E0001E85DB4
:1023E000D8B02CD0E8C00FF0E9C010F0000E126E8B
:1023F000030E116ED6EC1AF00F5000016225D96E53
:10240000105000016321DA6EE8C00FF0E9C010F04F
:10241000000E126E030E116ED6EC1AF0700E0F2421
:10242000E16E000E1020E26EDECFE6FFDECFE6FFAB
:10243000DECFE6FF0001E84BE92BC9D7000E000113
:10244000E96F000EE86F0001E9BF08D00001E95113
:1024500053E1280E0001E85DD8B01200E8C00FF08B
:10246000E9C010F0000E126E030E116ED6EC1AF0D9
:102470000F5000016025D96E105000016121DA6E05
:1024800064C049F065C04AF066C04BF067C04CF0CC
:1024900068C04DF069C04EF06AC04FF06BC050F09C
:1024A0006CC051F06DC052F06EC053F06FC054F06C
:1024B000E8C00FF0E9C010F0000E126E030E116EAE
:1024C000D6EC1AF00F5000016225E16E10500001A9
:1024D0006321E26EE6CF55F0E6CF56F0E5CF57F038
:1024E0003CEC0FF049C0DEFF4AC0DEFF4BC0DEFF10
:1024F0000001E84BE92BA7D7120003C007F0086AD8
:10250000096A0234073601E3088007500F6E0F5046
:10251000D8A409D0000E016E000E026E000E036EEC
:10252000000E046E120006C007F0086A096A05343E
:10253000073601E3088007500E6E0E50D8A409D06C
:10254000000E016E000E026E000E036E000E046E91
:102550001200028EFF0E0116FF0E0216000E031669
:10256000058EFF0E0416FF0E0516000E0616000E51
:102570000A6E000E0B6E000E0C6E000E0D6E7F0EBE
:102580000F5E0E50980F0F5E180E0E6ED8900A3622
:102590000B360C360D360450015C055002580650BF
:1025A0000358D8A007D00450015E0550025A0650C7
:1025B000035A0A80D8900136023603360E2EE6D72B
:1025C0000FAE16D00F50800A970FD8B009D0000E6A
:1025D000016E000E026E000E036E000E046E1200FD
:1025E000D8900D320C320B320A320F3EF9D715D08B
:1025F000170E0F640FD0000E016E000E026E000E5B
:10260000036E000E046E1200D8900A360B360C369C
:102610000D360F060F50D8A4F7D70AC001F00BC033
:1026200002F00CC003F00DC004F01200546E000E56
:10263000556E000E566E000E576E000E586E000E50
:10264000596E000E5A6E000E5B6E000E5C6E000E30
:102650005D6E545099EC16F04EEC1AF001C009F082
:1026600002C00AF032EC1AF009C058F00AC059F062
:102670000BC05AF0000E186EA00E196E400E1A6EA6
:1026800058C015F059C016F05AC017F039EC15F0C3
:1026900015C03AF016C03BF017C03CF0000E3D6E7E
:1026A000800E3E6E440E3F6E26EC16F03AC055F09A
:1026B0003BC056F03CC057F055C015F056C016F060
:1026C00057C017F0000E186EC80E196E420E1A6E23
:1026D00039EC15F015C05BF016C05CF017C05DF06A
:1026E000010E046E010EB1EC19F0770E056E080EA6
:1026F000066EB2EC18F05BC04DF05CC04EF05DC0F1
:102700004FF07FEC1AF0960E056E080E066EB2ECD6
:1027100018F0000E5F6E000E5E6E5FBE06D05F505A
:1027200013E1320E5E5CD8B00FD01A0E536EF80E65
:10273000E82EFED7532EFCD700D05E4A5F2A5FBE3C
:10274000F4D75F5001E1EDD75BC050F05CC051F0B1
:102750005DC052F01200033404340C6E0C50D8A447
:1027600009D0000E016E000E026E000E036E000E08
:10277000046E1200063407340B6E0B50D8A409D037
:10278000000E016E000E026E000E036E000E046E4F
:102790001200038EFF0E0116FF0E0216FF0E031627
:1027A000000E0416068EFF0E0416FF0E0516FF0E11
:1027B0000616000E0716000E076E000E086E000EBD
:1027C000096E000E0A6E7F0E0C5E0B50A00F0C5EA1
:1027D000200E0B6ED8900736083609360A3604509C
:1027E000015C055002580650035807500458D8A001
:1027F00009D00450015E0550025A0650035A075092
:10280000045A0780D89001360236033604360B2E60
:10281000E1D70CAE16D00C50800A9F0FD8B009D06B
:10282000000E016E000E026E000E036E000E046EAE
:102830001200D8900A320932083207320C3EF9D71A
:1028400015D01F0E0C640FD0000E016E000E026E2C
:10285000000E036E000E046E1200D8900736083684
:1028600009360A360C060C50D8A4F7D707C001F079
:1028700008C002F009C003F00AC004F01200000E04
:10288000566E000E556E70D055C00FF056C010F049
:10289000000E126E030E116ED6EC1AF00F50492482
:1028A000D96E10504A20DA6E4BC018F04CC019F0A7
:1028B0004DC01AF0010E5524536E000E5620546E72
:1028C000531E541E534A542A51505324096E5250D9
:1028D00054200A6E32EC1AF009C015F00AC016F046
:1028E0000BC017F039EC15F015C031F016C032F0FE
:1028F00017C033F04EC018F04FC019F050C01AF096
:1029000055C009F056C00AF032EC1AF009C015F0B3
:102910000AC016F00BC017F039EC15F015C02EF0F8
:1029200016C02FF017C030F05BEC10F02EC03AF05C
:102930002FC03BF030C03CF0FF0E5124096EFF0E5B
:1029400052200A6E32EC1AF009C03DF00AC03EF087
:102950000BC03FF026EC16F03AC0DEFF3BC0DEFFB6
:102960003CC0DEFF554A562A5150555C5650800AED
:10297000536E5250800A5358D8B0120085D72DC0DC
:102980002FF0306A316A2C342F3601E330802F501B
:10299000396E3950D8A409D0000E2B6E000E2C6E63
:1029A000000E2D6E000E2E6E1200170E2F6E2BC015
:1029B00030F02CC031F02DC032F02F28336E04D00F
:1029C000D890323231323032332EFAD73050346E22
:1029D0002C8EFF0E2B16FF0E2C16000E2D162B50D4
:1029E000356E2C50366E2D50376E386A8E0E395E2D
:1029F00039AE16D03950800A8F0FD8B009D0000EEA
:102A00002B6E000E2C6E000E2D6E000E2E6E120020
:102A1000D8903832373236323532393EF9D715D080
:102A2000170E39640FD0000E2B6E000E2C6E000EA8
:102A30002D6E000E2E6E1200D89035363636373693
:102A4000383639063950D8A4F7D73450D8B408D01E
:102A5000381E371E361E356C000E362237223822BD
:102A600035C02BF036C02CF037C02DF038C02EF01A
:102A7000120017C01BF01C6A1D6A16341B3601E3D6
:102A80001C801B501E6E1E50D8A407D0000E156E61
:102A9000000E166E000E176E12001AC01BF01C6A94
:102AA0001D6A19341B3601E31C801B50236E235012
:102AB000D8A407D0000E156E000E166E000E176E0D
:102AC000120023507B0F1E2617C023F01A50231A22
:102AD000800E2316168E198EFF0E1816FF0E19166D
:102AE000000E1A16000E1F6E000E206E000E216ED4
:102AF000070E226E15A006D018501F26195020224E
:102B00001A502122D890173216321532D890183622
:102B100019361A36222EEED7090E226E15A006D0CF
:102B200018501F26195020221A502122D8901732EF
:102B300016321532D890213220321F32222EEED793
:102B40001FC001F020C002F021C003F01EC004F03D
:102B500023C005F00AEC17F001C015F002C016F012
:102B600003C017F0120022C025F023C026F024C0B5
:102B700027F0000E296E000E286E29BE06D02950BF
:102B800064E1280E285CD8B0120028C00FF029C0DC
:102B900010F0000E126E030E116ED6EC1AF00F50EC
:102BA0002024D96E10502120DA6EDECF15F0DECF52
:102BB00016F0DDCF17F022C018F023C019F024C0A2
:102BC0001AF0ADEC17F0D8B027D028C00FF029C00C
:102BD00010F0000E126E030E116ED6EC1AF00F50AC
:102BE0002024D96E10502120DA6E28C00FF029C0A1
:102BF00010F0000E126E030E116ED6EC1AF00F508C
:102C00001E24E16E10501F20E26EDECFE6FFDECF05
:102C1000E6FFDECFE6FF16D028C00FF029C010F087
:102C2000000E126E030E116ED6EC1AF00F501E2419
:102C3000D96E10501F20DA6E22C0DEFF23C0DEFFE7
:102C400024C0DEFF284A292A98D712003CC040F051
:102C5000416A426A3B34403601E341804050476E4E
:102C60004750D8A407D0000E3A6E000E3B6E000EFF
:102C70003C6E12003FC040F0416A426A3E3440362A
:102C800001E341804050486E4850D8A407D0000E60
:102C90003A6E000E3B6E000E3C6E1200000E446E4B
:102CA000000E456E000E466E4850890F475E3CC0D0
:102CB00048F03F50481A800E48163B8EFF0E3A16D9
:102CC000FF0E3B16000E3C163E8EFF0E3D16FF0E0D
:102CD0003E16000E3F16180E436ED8904436453609
:102CE00046363D503A5C3E503B583F503C58D8A089
:102CF00007D03D503A5E3E503B5A3F503C5A4480CC
:102D0000D8903A363B363C36432EE7D744C001F0E4
:102D100045C002F046C003F047C004F048C005F0CB
:102D20000AEC17F001C03AF002C03BF003C03CF0DF
:102D30001200016E46D0C294C296C298C29A120086
:102D4000C250C30B0409C26E1200C250C30B080963
:102D5000C26E1200C250C30B0C09C26E1200C250E8
:102D6000C30B1009C26E1200C250C30B1409C26E0D
:102D70001200C250C30B1809C26E1200C250C30B1E
:102D80001C09C26E1200C250C30B2009C26E120091
:102D9000C250C30B2409C26E1200C250C30B2809D3
:102DA000C26E1200C250C30B2C09C26E1200C25078
:102DB000C30B3009C26E1200C294C296C298C29A66
:102DC00012000150000AD8B4B6D7010AD8B4B8D757
:102DD000030AD8B4BAD7010AD8B4BCD7070AD8B402
:102DE000BED7010AD8B4C0D7030AD8B4C2D7010AE3
:102DF000D8B4C4D70F0AD8B4C6D7010AD8B4C8D734
:102E0000030AD8B4CAD7010AD8B4CCD7070AD8B4B1
:102E1000CED7D2D70450D8B405D001500210031039
:102E2000D8A40CD0000E016E000E026E000E036ED0
:102E30001200042AD890033202320132000E01142B
:102E4000066E000E0214076EFE0E0314086E065086
:102E500007100810D8B40CD0ECD7042A010E0126B4
:102E6000000E0222000E0322D890033202320132F9
:102E7000000E0114066E000E0214076EFF0E0314FE
:102E8000086E065007100810D8B406D0E6D704061E
:102E9000D89001360236033602BE03D0020E04601B
:102EA000F6D704A0029ED8900432045003120550B5
:102EB000D8A4038E01C001F002C002F003C003F0E9
:102EC0001200ACEC1AF078EC18F04FEC1BF0C1ECEF
:102ED0001AF0010E046E010EB1EC19F0850E056EAC
:102EE000080E066EB2EC18F0FF0E3AEC1BF0000E66
:102EF00016EC13F050C0F6F051C0F7F052C0F8F0E5
:102F0000F6C05BF0F7C05CF0F8C05DF0CCEC08F008
:102F10005BC0F9F05CC0FAF05DC0FBF0010E046E1E
:102F2000020EB1EC19F07E0E056E080E066EB2ECC4
:102F300018F0F9C04DF0FAC04EF0FBC04FF07FEC36
:102F40001AF0F9C02BF0FAC02CF0FBC02DF0BFEC4A
:102F500014F02B5084EC19F0CAD717AE16D015C058
:102F60001BF016C01CF017C01DF01B1E1C1E1D1EE2
:102F70001B2A000E1C221D22000E1B24156E000EA3
:102F80001C20166E800E1D20176E1AAE16D018C0AB
:102F90001BF019C01CF01AC01DF01B1E1C1E1D1EAC
:102FA0001B2A000E1C221D22000E1B24186E000E70
:102FB0001C20196E800E1D201A6E000E151A000EB0
:102FC000161A800E171A000E181A000E191A800E03
:102FD0001A1A1850155C195016581A501758D8B0AC
:102FE00002D0D8901200D8801200000E0C6E0AAEEB
:102FF00006D0096C0A1ED8B00A2A010E0C6E08AE63
:1030000006D0076C081ED8B0082A010E0C1A000E54
:103010000E6E000E0D6E09500A10D8B41CD0010EB1
:103020000B6E04D0D89009360A360B2A0AAEFAD7AE
:10303000D8900D360E360950075C0A500858D8A0B3
:1030400005D00950075E0A50085A0D80D8900A3200
:1030500009320B2EEDD70C50D8B404D00D6C0E1ED7
:10306000D8B00E2A0DC007F00EC008F01200000EF6
:10307000096E000E0A6E000E0B6E000E0C6E0550EF
:10308000061007100810D8B42AD0010E0D6E06D015
:10309000D89005360636073608360D2A08AEF8D71A
:1030A000D89009360A360B360C360550015C0650AE
:1030B00002580750035808500458D8A009D00550AA
:1030C000015E0650025A0750035A0850045A0980FC
:1030D000D89008320732063205320D2EE1D709C0EA
:1030E00001F00AC002F00BC003F00CC004F01200A3
:1030F000000E96EC1AF01A0E046EF80EE82EFED7AB
:10310000042EFCD700D0030E0DEC1BF0070E046E4E
:103110007D0EE82EFED7042EFCD700F0030E0DEC3A
:103120001BF00F0E046E480EE82EFED7042EFCD7BF
:10313000030E0DEC1BF0020E0DEC1BF0020E0DEC5D
:103140001BF0080E0DEC1BF0000E0DEC1BF00C0E2E
:103150000DEC1BF0000E0DEC1BF0060E0DEC1BF041
:1031600084921200000E0A6E000E096E1AD00950E9
:103170000524076E0A500620086E07C0F6FF08C037
:10318000F7FFF86A070EF76403D00800F55005D082
:10319000F6CFE9FFF7CFEAFFEF5016EC1AF0094A35
:1031A0000A2A09500524076E0A500620086E07C037
:1031B000F6FF08C0F7FFF86A070EF76403D00800AF
:1031C000F55005D0F6CFE9FFF7CFEAFFEF50000941
:1031D000D8B41200CCD7000E066E02AE06D0016C39
:1031E000021ED8B0022A010E066E04AE04D0036C93
:1031F000041ED8B0042A03500410D8B418D0010E0D
:10320000056E04D0D89003360436052A04AEFAD7EA
:103210000350015C04500258D8A004D00350015E52
:103220000450025AD89004320332052EF1D70650CA
:10323000D8B404D0016C021ED8B0022A01C001F03B
:1032400002C002F012001250131014101510D8B45E
:1032500024D0010E166E06D0D890123613361436CE
:103260001536162A15AEF8D712500E5C13500F58AB
:103270001450105815501158D8A008D012500E5E96
:1032800013500F5A1450105A1550115AD890153225
:10329000143213321232162EE7D70EC00EF00FC0C2
:1032A0000FF010C010F011C011F012008E0E116E50
:1032B00006D0D8900C320B320A320932112A000E95
:1032C00009140D6E000E0A140E6E000E0B140F6E14
:1032D000FF0E0C14106E0D500E100F101010D8A40D
:1032E000E8D709C001F00AC002F00BC003F011C01A
:1032F00004F0000E056E0AEC17F001C009F002C0E0
:103300000AF003C00BF012003C6E000E3E6E000E81
:103310003D6E000E3B6E000E3A6EAE0E186E230E22
:10332000196E410E1A6E3C50FBEC1AF009C015F0F4
:103330000AC016F00BC017F039EC15F015C02BF0D1
:1033400016C02CF017C02DF0BFEC14F02BC03DF0D0
:103350002CC03EF03DC001F03EC002F0F9EC19F087
:103360001200056E0504D8A410D004507F0F086E1B
:1033700008380F0B066E08500F0B076E06500DEC49
:103380001BF007500DEC1BF01200020E0518D8A41C
:1033900012000450BF0F086E08380F0B066E08505D
:1033A0000F0B076E06500DEC1BF007500DEC1BF0D9
:1033B00012003D503E103F10D8B406D0000E3D1A0A
:1033C000000E3E1A800E3F1A3AC02EF03BC02FF07E
:1033D0003CC030F03DC031F03EC032F03FC033F071
:1033E0005BEC10F02EC03AF02FC03BF030C03CF048
:1033F000120001C003F002C004F0060ED89003369C
:103400000436E82EFBD703C005F004C006F006C062
:10341000BEFF05C003F0D8900332D8900332300EBF
:103420000316BD50CF0B0310BD6E1200046E045086
:103430000F0B026E0450F00B036E848003380F0BE9
:1034400096EC1AF084840D0EE82EFED700F08494DA
:10345000025096EC1AF084840D0EE82EFED700F090
:1034600084941200000E0C6E0AAE06D0096C0A1E7F
:10347000D8B00A2A010E0C6E09C001F00AC002F091
:10348000036A8E0E046E0CC005F00AEC17F001C042
:1034900009F002C00AF003C00BF01200000E046E27
:1034A000000E036EC282C2B2FED7C4CF03F0046A1C
:1034B0000350046E036AC3500324036E000E0420FD
:1034C000046EC29203C001F004C002F01200AC0E00
:1034D000F66E360EF76E000EF86E0900F5CFF2F1BB
:1034E0000900F5CFF3F10101F16BF06B0001FE6B08
:1034F000FD6BFC6B000EF86E000161EF17F0770EAC
:10350000406E000E416E910E426E080E436E4DC02D
:1035100044F04EC045F04FC046F04DEC04F0770E3D
:10352000056E000E066EB2EC18F01200016E01A0DE
:1035300002D0838801D0839801A202D0838A01D06F
:10354000839A01A402D0838C01D0839C01A602D06F
:10355000838E1200839E1200000E966E96CF95FF0A
:1035600095CF94FF94CF93FF93CF92FF000E846E7C
:1035700084CF83FF83CF82FF82CF81FF81CF80FF03
:103580001200C150F00B0C09C16EC294C296C298D1
:10359000C29A928692829280C280C08EC050F80BEE
:1035A0000609C06EC086C088C08A12000F50110282
:1035B000F3CF13F0F4CF14F00F501202F35014268F
:1035C00010501102F350142613C00FF014C010F065
:1035D0001200015002100310D8B406D0000E011AD8
:1035E000000E021A800E031A01C001F002C002F0A0
:1035F00003C003F012000C6E0C50016E026A036AE5
:103600008E0E046E000E056E0AEC17F001C009F074
:1036100002C00AF003C00BF01200036E8490035046
:1036200096EC1AF08484060E026E300EE82EFED759
:10363000022EFCD700D084941200036E000E026E9E
:103640003A0E036005D02F0E036402D0010E026E05
:1036500002C001F001301200016E0150FB0BCA6E76
:10366000000ECC6E9E9201AE02D09D8201D09D9242
:10367000CA841200026EFE0E0001FE6F0001FE51B0
:103680002CEC1BF0025046EC1BF01200016E0C0EED
:10369000BD129494CA9401C0CBFFCA841200000EDC
:0E36A0000DEC1BF0010E0DEC1BF012000100F2
:020000040020DA
:08000000FFFFFFFFFFFFFFFF00
:020000040030CA
:0E0000002008191EFF8181FF0FC00FE00F4086
:00000001FF
